:020000040000fa
:080000000002040000000000f2
:020000040000fa
:10040000cf8720000e7f24000e018800000000002e
:10041000000020000000e000020032000001200087
:10042000200288000c00070060c3230001002000a8
:100430001f000700000020000000e0000200320062
:100440000000020000000000643302000000000011
:100450000040da000000fe004440a900a05c21003a
:100460000000e0000300320000002000a00188002e
:100470004440a80000000600f03fb1000180b10038
:1004800006003500ee03090000000000403fb10007
:100490000180b100fbff3d001000b000203fb00024
:1004a0000200350000800900000000000000060086
:1004b00091018800800078000000eb0015003700f3
:1004c000e280400032a0b4009101ba00e280400016
:1004d00032a0b4009102ba00e280400032a0b40021
:1004e0000002eb00472bde00f507b200602ce100b4
:1004f00004003a000059eb008301e900fdff3e00d3
:10050000040037006128e100010032000082eb00a6
:10051000040007001101ba000200e000e8ff3a0001
:10052000000006003159ba008301e9000c003200d6
:100530002159ba008301e900080032000400e000fc
:1005400003003a00e280400032a0b400f5ff37001b
:1005500011d9ba008301e900faff3a008100e800ee
:10056000e180400032a0b400000006000040da0044
:100570000000fe006011b80006013700889fbe0031
:100580008a9fbe008c1f78003101070038013300bc
:1005900003866c006450e1002e0032006420e1000c
:1005a000330032006150e1002f0032006120e10091
:1005b0003100320085855500eb07b00009002000ae
:1005c00008042000050037000804440089844c001a
:1005d0000a0031000603430087834b0000015300eb
:1005e00081815b00f8ff33000203be000800a00019
:1005f0000804440089844c00f6ff3900c639dd0048
:100600008301730001003200130020008904d1002f
:100610000884d3000998a300050032000800a70051
:100620000300a0008904d1000884d3008b05e800f2
:100630008904d1000884d3000001eb000281d200bc
:100640001b01070001f0a1000cf0a70001f0a000c1
:10065000100137006420e100120132000801be00e1
:100660000200be00f7ff37006120e1000d013200fb
:100670006000b800f3ff37000000200001f82700f9
:10068000f0ff3700889fbe008a9fbe008c1f780055
:10069000ef000700f600330003866c006450e100b1
:1006a000240032006420e100270032006150e100a4
:1006b000220032006120e100210032008b854200df
:1006c000eb07b1000134b800003ab800080442005a
:1006d00089844a00013ab8000030b80088804000a0
:1006e00009014a00040033000000400081804800f6
:1006f000020149008b05e900c909dd008301700092
:100700000100320013002000c814de004814dd0090
:100710004709de001200b200c808de00088470003d
:10072000e300070001f0a1000cf0a70001f0a00019
:10073000d80037006120e100da0032000801be0075
:100740000200be00f7ff37006150e100fcff3a00f5
:10075000d40037000001be00fb0007000470a700b2
:1007600003f0a10003f8a30013003a006509b100eb
:1007700010003200090035006928e1000200350050
:1007800001002800000005000000400081804800b2
:100790008502e900fcff3a0000000600f88f4200e5
:1007a000050035008100d1000080d3008502e800fb
:1007b000fcff3a00000006008000eb00000005008e
:1007c0006022b800060220000000d0008180d20024
:1007d0000482d2008582d2000000a00002025200f2
:1007e00083825a00030031000202420083824a00e1
:1007f0000000a1000603e900f3ff3a000000060034
:10080000efff07000400be000000060003f0a20096
:10081000889fbe008a9fbe008c1f78008c00070056
:10082000930033006450e1004f0032006420e10087
:100830005200320003826c0007003b000905d00023
:100840000306d000820f54000c065d000200390040
:100850000200320089017800030678008582550085
:1008600004003d000003fd008103fd008502ea0055
:100870008b854200840f720002003b006000100074
:10088000e08018006011b8000005eb007a28e10054
:100890000a00390006007800c75ddd00f707b200e6
:1008a000878075002d003700828171000a01780071
:1008b000610560008180d1000080d3008502e900dd
:1008c000f9ff3b00060440008784480002003b001b
:1008d00060041400e0841c000988a30007003200b3
:1008e0008a81710082817100610164008904d100f4
:1008f0000884d3008b05e800170037000978a300af
:1009000013003a000b00e000130034008b05e900ef
:100910000804440089844c000a4474000978a30048
:100920000d003a000b00e000070034008b05e900e1
:100930000804440089844c0001003a000b002000a8
:100940000978a300f7ff32000001eb000200370036
:10095000828171000a017800550007000cf0a700a1
:1009600001f0a0004b0037006420e10002003a00d3
:10097000838f6c004b0033000801be000200be00f4
:1009800044003700f4ff2f008400370014002000db
:1009900082003700889fbe008a9fbe0000827000e0
:1009a0000402710004827100260032000004be00bf
:1009b0000200be006011b8006b0920009502200003
:1009c0000182cf000a0039000541b1000082cf004a
:1009d000070039000541b1000982cf000400390049
:1009e0000541b1000882cf00010039000541b10086
:1009f00005425200120032000a003b008281710061
:100a0000610164008100d1000080d3008984d3009b
:100a10000884d3008b05e8000442e800f7ff3a00a1
:100a2000070037000804440089844c000000480097
:100a3000818048008b05e9000442e900f9ff3a0093
:100a40001b0007004f05be004f04be00000006005b
:100a50000004be003c0007000003be000405be0009
:100a60000200be0038000700844f75000000060039
:100a70000200be006450e100050036006420e10081
:100a8000020036000968a30001003a000800be0019
:100a90000160a0004f0678004f05be004f04be0065
:100aa00000000600f0ff2f00f1ff2700f9ff3700dc
:100ab00081002000618055000b003d000b002000ec
:100ac00061fe2f000100e1001d00340082817100f1
:100ad000610164008904d1000884d3000000e800ab
:100ae000faff3a007100200061006400030070000a
:100af000020060000900320061044400e0844c0000
:100b00000988a500050032008b05e8006808e100af
:100b100002003a008904d1000884d300f20f2000bb
:100b20000258e10005003d00c75ddd00f907b20095
:100b30008980750008007800000006000bf8270087
:100b40008b00780000000500c70ade00f107b20044
:100b5000f50fb20008003200e1cf4200020032007f
:100b60000170a00024000500810f70000100320018
:100b70000408050044000500810f700002003a00df
:100b8000140005008502e9000000400081c0480013
:100b9000fcff3b000170a00024000500889fbe0000
:100ba0008a9fbe00841f7800a9ff07004f007800cd
:100bb00011003300f0ff2f00838f6c0006003b0014
:100bc000040565000a00a7000800370009f0a60028
:100bd0001000200008003700820f5400838f5c0053
:100be000030039001000200001003e00000020003a
:100bf00009f0a7000000ea004f05be004f04be0048
:100c00000000e00000000600810378008001780009
:100c10000702780001003700850178001100090003
:100c20000282d8008302e80000027800e00f520040
:100c3000f9ff3a00844a7800110009008283d80045
:100c4000800278000142780085037800e94f520065
:100c5000010034006742420001c3b30081514200e9
:100c6000e08f5200f4ff3a00030078000000060015
:100c7000881f780000047800e08f500005003d00d8
:100c800008007800d4c2b3008100ea00045878005c
:100c90000100370008007800dbff0700080078003b
:080ca0004f047800000006007b
:020000040000fa
:0200000401f009
:04000c0078ff000079
:020000040000fa
:0200000401f009
:04001000bbff000032
:020000040000fa
:0200000401f009
:040014007fff00006a
:020000040000fa
:0200000401f009
:04001c00dfff000002
:020000040000fa
:10000800b6020000b6020000b6020000b602000008
:10001800b6020000b6020000b6020000b6020000f8
:10002800b6020000b6020000b6020000023b000063
:10003800b6020000b6020000b6020000b6020000d8
:10004800b6020000b6020000b6020000d639000071
:10005800c2390000b6020000b6020000b602000075
:10006800b6020000b6020000b6020000b6020000a8
:10007800b6020000b6020000b6020000b602000098
:10008800b6020000b6020000b6020000b602000088
:10009800b6020000b6020000b6020000b602000078
:1000a800b6020000b6020000b6020000b602000068
:1000b800b6020000b6020000b6020000b602000058
:1000c800b6020000b6020000b6020000b602000048
:1000d800b6020000b6020000b6020000b602000038
:1000e800b6020000b6020000b6020000b602000028
:1000f800b6020000b6020000b6020000b602000018
:10010800b6020000b6020000b6020000b602000007
:10011800b6020000b6020000b6020000b6020000f7
:10012800b6020000b6020000b6020000b6020000e7
:10013800b6020000b6020000b6020000b6020000d7
:10014800b6020000b6020000b6020000b6020000c7
:10015800b6020000b6020000b6020000b6020000b7
:10016800b6020000b6020000b6020000b6020000a7
:10017800b6020000b6020000b6020000b602000097
:10018800b6020000b6020000b6020000b602000087
:10019800b6020000b6020000b6020000b602000077
:1001a800b6020000b6020000b6020000b602000067
:1001b800b6020000b6020000b6020000b602000057
:1001c800b6020000b6020000b6020000b602000047
:1001d800b6020000b6020000b6020000b602000037
:1001e800b6020000b6020000b6020000b602000027
:0801f800b6020000b60200008f
:020000040000fa
:10020800b6020000b6020000b6020000b602000006
:10021800b6020000b6020000b6020000b6020000f6
:10022800b6020000b6020000b6020000023b000061
:10023800b6020000b6020000b6020000b6020000d6
:10024800b6020000b6020000b6020000d63900006f
:10025800c2390000b6020000b6020000b602000073
:10026800b6020000b6020000b6020000b6020000a6
:10027800b6020000b6020000b6020000b602000096
:10028800b6020000b6020000b6020000b602000086
:10029800b6020000b6020000b6020000b602000076
:1002a800b6020000b6020000b6020000b602000066
:1002b800b6020000b6020000b6020000b602000056
:1002c800b6020000b6020000b6020000b602000046
:1002d800b6020000b6020000b6020000b602000036
:1002e800b6020000b6020000b6020000b602000026
:1002f800b6020000b6020000b6020000b602000016
:10030800b6020000b6020000b6020000b602000005
:10031800b6020000b6020000b6020000b6020000f5
:10032800b6020000b6020000b6020000b6020000e5
:10033800b6020000b6020000b6020000b6020000d5
:10034800b6020000b6020000b6020000b6020000c5
:10035800b6020000b6020000b6020000b6020000b5
:10036800b6020000b6020000b6020000b6020000a5
:10037800b6020000b6020000b6020000b602000095
:10038800b6020000b6020000b6020000b602000085
:10039800b6020000b6020000b6020000b602000075
:1003a800b6020000b6020000b6020000b602000065
:1003b800b6020000b6020000b6020000b602000055
:1003c800b6020000b6020000b6020000b602000045
:1003d800b6020000b6020000b6020000b602000035
:1003e800b6020000b6020000b6020000b602000025
:0803f800b6020000b60200008d
:020000040000fa
:100ca80056580000313a0000005600007931000023
:100cb8003a00000043480000583100003a000000a4
:100cc80043480000593100003a000000565800001f
:100cd800323a000000560000793200003a00000065
:100ce80043480000583200003a0000004348000022
:100cf800593200003a000000565800003a0000003f
:100d0800567900003a00000043480000583a0000b5
:100d180000430000485900003a0000004164000008
:100d28006a75000073740000204f00004b2100001a
:100d380020200000546f0000756300006820000048
:100d4800416e000079770000686500007265000058
:100d5800205400006f200000436f00006e740000f4
:100d6800696e000075650000005800003a00000038
:100d7800593a000000ff0000ffff0000ffff0000dd
:100d8800ffff0000ffff0000ffff0000ffff000063
:100d9800ffff0000ffff0000ffff0000ffff000053
:100da800ffff0000ffff0000ffff0000ffbe000084
:100db800f77d0000efba0000d6b60000b5f30000da
:100dc8009cb2000094b300009cb200009434000070
:100dd800a5f70000bdfb0000de7d0000efff00006e
:100de800ffff0000ffff0000ffff0000ffff000003
:100df800ffff0000ffff0000ffff0000ffff0000f3
:100e0800ffff0000ffff0000ffff0000ffff0000e2
:100e1800ffff0000ffff0000ffff0000ffff0000d2
:100e2800ffff0000ffff0000ffff0000ffff0000c2
:100e3800ffff0000ffff0000ffff0000ffff0000b2
:100e4800ffff0000ffbe0000f7fb0000def300001c
:100e58009ccb00005ac70000390400002182000022
:100e680010420000104200001041000008830000fa
:100e78001845000029c70000390c00006375000000
:100e8800ad3c0000e7be0000f7ff0000ffff0000d8
:100e9800ffff0000ffff0000ffff0000ffff000052
:100ea800ffff0000ffff0000ffff0000ffff000042
:100eb800ffff0000ffff0000ffff0000ffff000032
:100ec800ffff0000ffff0000ffff0000ffff000022
:100ed800ffff0000ffff0000ffff0000ffff000012
:100ee800ff3c0000e7b200009408000042c3000085
:100ef8001882000010040000214500002986000027
:100f0800318600003186000031860000314500003e
:100f180029040000218200001041000008c30000dd
:100f28001808000042f300009c3c0000e7ff0000a6
:100f3800ffff0000ffff0000ffff0000ffff0000b1
:100f4800ffff0000ffff0000ffff0000ffff0000a1
:100f5800ffff0000ffff0000ffff0000ffff000091
:100f6800ffff0000ffff0000ffff0000ffff000081
:100f7800ffff0000ffff0000ffff0000fffb000075
:100f8800de0c000063c3000018c300001845000011
:100f980029c7000039080000420800004208000084
:100fa80042080000420800004208000042c7000052
:100fb80039c700003986000031860000310400007e
:100fc800214100000882000010cb00005aba00003e
:100fd800d6ff0000ffff0000ffff0000ffff00003a
:100fe800ffff0000ffff0000ffff0000ffff000001
:100ff800ffff0000ffff0000ffff0000ffff0000f1
:10100800ffff0000ffff0000ffff0000ffff0000e0
:10101800ffff0000ffff0000fffb0000decb000029
:101028005a8200001045000029c700003908000056
:1010380042080000420900004a4900004a490000ed
:101048004a4900004a4900004a4900004a0800008d
:1010580042c7000039c7000039c7000039860000c0
:1010680031450000298300001800000000c8000076
:1010780041380000c6ff0000ffff0000ffff00002e
:10108800ffff0000ffff0000ffff0000ffff000060
:10109800ffff0000ffff0000ffff0000ffff000050
:1010a800ffff0000ffff0000ffff0000ffff000040
:1010b800ffff0000ff7d0000ef8e0000738200003c
:1010c8001045000029c70000390800004209000047
:1010d8004a8a00005230000084cf00007b8a00005a
:1010e800524900004a4a0000524900004acb000019
:1010f8005acf00007b0c00006308000042c70000c4
:10110800398600003145000029c30000180000009e
:10111800004900004aba0000d6ff0000ffff0000a7
:10112800ffff0000ffff0000ffff0000ffff0000bf
:10113800ffff0000ffff0000ffff0000ffff0000af
:10114800ffff0000ffff0000ffff0000ffff00009f
:10115800ffff0000fff300009cc30000180400001c
:1011680021c7000039080000424900004a49000030
:101178004a720000947d0000ef7d0000efb200008d
:10118800944a0000524900004a8a00005275000043
:10119800adbe0000f7ba0000d64d00006bc70000d6
:1011a80039c70000398600003145000029c3000016
:1011b8001841000008cf00007b7c0000e7ff00001a
:1011c800ffff0000ffff0000ffff0000ffff00001f
:1011d800ffff0000ffff0000ffff0000ffff00000f
:1011e800ffff0000ffff0000ffff0000ffff0000ff
:1011f800ffba0000d60800004282000010c70000b5
:1012080039080000424900004a4900004a8e00009f
:1012180073fb0000deff0000ffbe0000f7ba00000d
:10122800d68e00007308000042300000843c0000a5
:10123800e77d0000efff0000ffb60000b5490000a1
:101248004ac7000039860000314500002904000023
:10125800214100000845000029b60000b5ff000044
:10126800ffff0000ffff0000ffff0000ffff00007e
:10127800ffff0000ffff0000ffff0000ffff00006e
:10128800ffff0000ffff0000ffff0000ffbe00009f
:10129800f77100008c410000084500002908000093
:1012a800424900004a4900004a4a000052b2000080
:1012b80094be0000f7be0000f7b2000094cf000013
:1012c8007bcf00007b4900004ab60000b5f3000060
:1012d8009c0c000063380000c6ba0000d60c000061
:1012e8006387000039c700003986000031450000d7
:1012f80029c300001841000008300000847d000068
:10130800efff0000ffff0000ffff0000ffff0000ed
:10131800ffff0000ffff0000ffff0000ffff0000cd
:10132800ffff0000ffff0000ffff0000ff3c000080
:10133800e7cb00005a41000008c700003908000048
:10134800424900004a4a0000528a000052f3000055
:101358009cff0000ff7d0000efc7000039c30000bc
:10136800180c000063cb00005ab60000b5b20000ac
:1013780094cb00005a750000adfa0000d64d00006d
:101388006b87000039c7000039860000314500002e
:101398002904000021410000088a00005279000059
:1013a800ceff0000ffff0000ffff0000ffff00006e
:1013b800ffff0000ffff0000ffff0000ffff00002d
:1013c800ffff0000ffff0000ffff0000ff380000e4
:1013d800c68600003104000021c800004149000011
:1013e8004a4900004a4a0000524900004ab1000038
:1013f8008cbe0000f7be0000f7b2000094cf0000da
:101408007bcf00007b4900004a740000a57d0000e6
:10141800ef7c0000e7be0000f7790000ce0c00006a
:1014280063c7000039c70000398600003145000055
:1014380029040000218200001045000029750000e1
:10144800adbe0000f7ff0000ffff0000ffff000037
:10145800ffff0000ffff0000ffff0000ffff00008c
:10146800ffff0000ffff0000ffff0000ff34000047
:10147800a5820000108600003108000042490000e3
:101488004a4900004a8a0000524900004a4d0000bb
:101498006bba0000d6ff0000ffff0000ff790000d4
:1014a800ce0d000063c7000039cf00007b7d00002f
:1014b800efff0000ffff0000ff750000ad0800000f
:1014c8004286000031c7000039860000314500001f
:1014d8002945000029c3000018c3000018b2000005
:1014e800947d0000efff0000ffff0000ffff0000f9
:1014f800ffff0000ffff0000ffff0000ffff0000ec
:10150800ffff0000ffff0000ffbe0000f7b2000071
:101518008c41000008c7000039080000424900005b
:101528004a4900004a8a0000528a0000524a0000d4
:101538004ad000007b7a0000c67b0000be90000005
:101548006bc900003988000031c9000039b30000b8
:1015580084bb0000c6f80000b5cc00005a86000025
:1015680031c7000039c70000398600003145000046
:101578002945000029c4000020410000083000006f
:10158800843c0000e7ff0000ffff0000ffff0000b1
:10159800ffff0000ffff0000ffff0000ffff00004b
:1015a800ffff0000ffff0000ff3c0000e78a00008b
:1015b8004ac3000010c70000390800004249000073
:1015c8004a4900004a4a00004a4a0000420900000d
:1015d8003a0800004a0900006b4900007bc6000079
:1015e8007a0500008346000083c500007ac6000023
:1015f800720900007b4800005a870000318800000b
:10160800218800002986000031860000314500004d
:10161800294500002904000021410000084a000073
:101628004aba0000d6ff0000ffff0000ffff0000dd
:10163800ffff0000ffff0000ffff0000ffff0000aa
:10164800ffff0000ffff0000fff70000c582000059
:101658005005000041c70000290800004249000069
:101668004a4a0000424900004a0900007b880000fd
:101678009bc60000b3210000d4a00000dce10000fc
:10168800e4610000ed610000ed210000eda0000024
:10169800e4200000dc800000cb430000abc4000065
:1016a800820600005a470000214600002945000034
:1016b800290400002904000019820000108200009b
:1016c80018f300009c7d0000efff0000ffff000002
:1016d800ffff0000ffff0000ffff0000ffff00000a
:1016e800ffff0000ff7d0000ef4d000093000000a9
:1016f800a0820000b8c7000031090000324900008c
:101708004a8600007a430000c36b0000edf4000035
:10171800f6eb0000fd200000fd200000fd60000049
:10172800fda00000fda00000fd600000fd600000bd
:10173800fd200000fde00000fca00000fc600000af
:10174800f4c10000db8300009ac500004945000091
:101758002904000019c4000020820000380000009d
:1017680050cb00006aba0000d6ff0000ffff00005f
:10177800ffff0000ffff0000ffff0000ffff000069
:10178800ffff0000fffb0000ee040000a1000000c6
:10179800c0000000f0c30000a0c8000041490000dc
:1017a800420500009b200000fca40000fc6900002a
:1017b800fde80000fd630000fd200000fd60000062
:1017c800fd600000fd600000fd200000fd2000001d
:1017d800fde00000fce00000fca00000fc60000050
:1017e800fc200000fc410000d3c500004945000072
:1017f80019c4000038820000684100008800000019
:10180800704900005a790000ceff0000ffff000079
:10181800ffff0000ffff0000ffff0000ffff0000c8
:10182800ffff0000fffb0000f6820000c000000080
:10183800d0860000c1460000f1410000c845000004
:101848007989000052880000628600006ac600009c
:101858007ac40000bbe10000fc600000fd600000ed
:10186800fda00000fda00000fd600000fd6000007c
:10187800fde00000fc600000e40300009384000029
:10188800724400006ac500004145000029c30000f9
:1018980058410000a840000098000000b000000077
:1018a800600c00006b790000ceff0000ffff000015
:1018b800ffff0000ffff0000ffff0000ffff000028
:1018c800ff7d0000efce000083820000880000004a
:1018d800f8c40000d80c0000f38a0000fa82000067
:1018e800e8820000b045000069c700005108000008
:1018f800420800003a8600005a8300009ba20000bc
:10190800bc220000cd210000cda10000c4220000af
:10191800b4c400007a0600003a8600002945000099
:101928002905000031c4000050410000900000006b
:10193800c0000000a8000000a0000000a8000000ef
:10194800304a00004aba0000d6ff0000ffff00003e
:10195800ffff0000ffff0000ffff0000ff7d000009
:10196800ef8e000073c300001805000039820000e4
:10197800a8000000f8c30000f84d0000fb4d00006f
:10198800fbc70000f9c30000f0820000d8c30000c4
:10199800b004000081450000614600005186000047
:1019a80049860000494600004145000041450000c5
:1019b8004145000041050000490400006182000023
:1019c80090410000b0000000d0000000c8000000f6
:1019d800a8000000a8000000b841000058820000dc
:1019e8001082000010b2000094be0000f7ff000053
:1019f800ffff0000ffff0000ffbe0000f7cf000060
:101a08007b82000010040000218600002986000067
:101a18004104000099400000e8410000f8860000f9
:101a2800f9cb0000fa490000fa820000f800000033
:101a3800f8000000f0000000e8410000d841000074
:101a4800d0410000c0410000c0410000c04100007a
:101a5800c0410000c8000000d0000000e000000005
:101a6800e0000000d8000000d0000000b80000002e
:101a7800a84100008882000048820000108200000f
:101a8800100000000045000029790000ceff00008a
:101a9800ffff0000ffbe0000f7f300009c8200007b
:101aa80010c30000184500002986000031c7000057
:101ab800313000007cf30000dc860000e10000000b
:101ac800f0000000f8410000f8410000f8000000b4
:101ad800f8000000f8000000f8000000f80000001e
:101ae800f8000000f8000000f8000000f80000000e
:101af800f8000000f8000000e8000000e000000026
:101b0800e0000000d8000000c8410000a08a0000e2
:101b18009a0c00006304000011820000108200008b
:101b28001041000008000000004d00006b7d00001f
:101b3800efff0000fffb0000de080000424200004b
:101b48001045000029860000318600003149000058
:101b58004a380000beff0000ff380000d6860000ab
:101b6800a9000000c8000000e0000000f00000002c
:101b7800f8000000f8000000f8000000f80000007d
:101b8800f8000000f8000000f8000000f80000006d
:101b9800f0000000f0000000e8000000e000000095
:101ba800d0c30000988a00008ab20000a4ba0000de
:101bb800c6f70000b5080000424100000882000096
:101bc80010410000080000000045000029f700004f
:101bd800bdff0000ff7100008c41000008040000f8
:101be800214500002986000031860000310c0000e4
:101bf800633c0000e7ff0000ff790000d6460000c4
:101c0800b9000000e0420000c8820000a88200007d
:101c1800b0410000d8820000e8820000f0410000d6
:101c2800e8410000e8410000e8410000f041000000
:101c3800e8410000d8040000c1080000924d0000ef
:101c48008b340000a5fb0000c6fb0000d6ba0000dc
:101c5800ce3c0000e730000084c3000018410000bb
:101c680008410000080000000041000008cf000003
:101c78007b7d0000ef4900004a00000000040000de
:101c8800214500002946000031860000313000005f
:101c980084ff0000ffff0000f7f70000dd090000e7
:101ca800da830000f8010000f0420000c082000062
:101cb800984900009af30000b4f30000cc710000ca
:101cc800bc8e0000bb8e0000bb300000bc71000061
:101cd800bcf30000bcb60000bdfb0000cebe000097
:101ce800e77d0000e73b0000dfba0000d67900007e
:101cf800cefb0000de750000ad860000314100001b
:101d08000841000008000000000000000049000031
:101d18004afb0000de040000214100000804000026
:101d280021450000294500002987000039b200003c
:101d380094ff0000ffbe0000f7340000dd0c000037
:101d4800eb090000fa000000f0010000d8000000d4
:101d5800d88b0000d27d0000e7ff0000ffff0000e5
:101d6800ffff0000ffff0000ffff0000ffff000073
:101d7800ffff0000ffff0000ffbe0000ff7d000026
:101d8800effb0000defb0000deba0000d6790000a1
:101d9800ceba0000d6780000c6c70000390000009f
:101da80000410000080000000000000000c700001b
:101db80039790000ce0000000082000010c3000046
:101dc80018040000210500002986000031b3000036
:101dd8009cff0000ffff0000f7750000ddc7000052
:101de800e9c70000f9010000f8010000f000000058
:101df800e8490000e2fb0000eeff0000ffff0000e2
:101e0800ffff0000ffff0000ffff0000ffff0000d2
:101e1800ffff0000ffff0000ffbe0000f77d00008d
:101e2800effb0000defb0000deba0000d679000000
:101e3800ceba0000d6b90000ce080000420000006b
:101e480000000000000000000000000000c70000c3
:101e580039380000c600000000820000108200002f
:101e68001004000021040000214500002930000072
:101e780084ff0000ffff0000ff380000dec4000000
:101e8800d0000000f0010000f8000000f800000099
:101e9800f0080000d2fb0000e6ff0000ffff000092
:101ea800ffff0000ffff0000ffff0000ffff000032
:101eb800ffff0000ffff0000ffbe0000f77d0000ed
:101ec800effb0000deba0000d6790000ce790000f2
:101ed800ceba0000d6790000cec700003941000014
:101ee800080000000000000000000000008600005c
:101ef80031380000c60000000000000000c30000e8
:101f080018cb00005a86000031c3000018cb00002f
:101f18005a7d0000efff0000ff7d0000efcf0000ba
:101f2800bbc30000b0410000d0410000d0820000d7
:101f3800b84d0000b37d0000e7ff0000ffff000080
:101f4800ffff0000ffff0000ffff0000ffff000091
:101f5800ffff0000ffbe0000f7be0000f73d0000d5
:101f6800effb0000deba0000d6790000ce79000051
:101f7800cefa0000d6f70000bd040000218600005c
:101f8800310400002100000000000000008600006d
:101f980031380000c686000031c3000018cb0000ad
:101fa8005a750000adcf00007b4100000886000094
:101fb80031f70000bdff0000ffff0000ffbe00007a
:101fc800ef740000b53000009c3000009c720000e7
:101fd800a4bb0000d6ff0000ffff0000ffff0000c9
:101fe800ffff0000ffff0000ffff0000ffff0000f1
:101ff800ffff0000ffbe0000f77d0000ef3c00007f
:10200800e7fb0000deba0000d6790000ce790000b8
:10201800ce3c0000e77100008c810000080c000035
:1020280063cf00007b82000010000000008a0000df
:1020380052380000c6750000ad7100008cb6000073
:10204800b53c0000e7fb0000dec7000039000000d7
:1020580000cf000073ff0000ffff0000ffff00003b
:10206800ffff0000ffff0000ffff0000ffff000070
:10207800ffff0000ffff0000ffff0000ffff000060
:10208800ffff0000ffff0000ffff0000ffff000050
:10209800ffbe0000f77d0000ef7d0000ef3b000071
:1020a800dffa0000d6790000ce790000cefb0000f0
:1020b800deb90000cec7000039c40000207100005e
:1020c8008cba0000d67100008ccb00005ab2000018
:1020d80094ba0000d6ff0000ff7d0000ef7d0000ed
:1020e800efff0000ffff0000ffb60000b54600004c
:1020f8002905000019750000a5ff0000ffff00007a
:10210800ffff0000ffff0000ffff0000ffff0000cf
:10211800ffff0000ffff0000ffff0000ffff0000bf
:10212800ffff0000ffff0000ffff0000ffff0000af
:10213800ffbe0000f77d0000ef3c0000e7fb000059
:10214800deba0000d6790000ceba0000d6fc000046
:10215800de4e000063420000080c000063f7000038
:10216800bdbe0000f7ff0000fffb0000defb000023
:10217800debe0000f7ff0000ffff0000ffff0000c9
:10218800ffff0000ffff0000ffff0000fff400005a
:102198009c0400002105000021b60000a5ff0000f6
:1021a800ffff0000ffff0000ffff0000ffff00002f
:1021b800ffff0000ffff0000ffff0000ffff00001f
:1021c800ffff0000ffff0000ffbe0000f7be000099
:1021d800f77d0000ef3c0000e7fb0000deba0000de
:1021e800d6790000cefb0000debb0000d6d100008f
:1021f8007383000018860000393400009dbd00007c
:10220800efff0000ffff0000ffff0000ffff0000de
:10221800ffff0000ffff0000ffff0000ffff0000be
:10222800ffff0000ffbe0000ff350000d6eb0000f6
:10223800cc430000b34000005105000019f5000030
:102248008cbe0000efff0000ffff0000ffff000052
:10225800ffff0000ffff0000ffff0000ffff00007e
:10226800ffbe0000f7be0000f77d0000ef7d000014
:10227800ef3c0000e7fb0000deba0000deba000019
:10228800d63c0000df3a0000be4f00006382000029
:1022980049400000a3230000b4cc0000833a0000aa
:1022a800beff0000ffff0000ffff0000ffff00006f
:1022b800ffff0000ffff0000ffff0000ffff00001e
:1022c800ffbf0000f7b50000bd82000092200000ab
:1022d800f4a00000fc600000e440000082840000dc
:1022e800418f00006b770000ad3d0000e7ff000064
:1022f800ffff0000fffe0000ffbe0000f7be000069
:10230800f7be0000f77d0000ef7d0000ef3c000005
:10231800e7fb0000defb0000de3d0000e7bb00003d
:10232800ce3600009d0b00006b4100006a60000083
:10233800c4200000fe600000f50000008bc700000c
:102348006a380000c6be0000f7ff0000ffff00006b
:10235800ffff0000ffff0000ffff0000ffff00007d
:10236800ff7d0000ef4b00007b800000b2a0000062
:10237800fca00000fce00000fce00000fcc0000045
:10238800cbc100008a450000624d00006bb300001d
:1023980094f70000bd3d0000dfff0000f7ff0000dc
:1023a800ffbe0000f77d0000ef7d0000ef7d00001c
:1023b800e73d0000dfba0000c6750000a58d0000eb
:1023c8007b8400007a400000b3e00000ece00000ed
:1023d800fde00000fd600000f5200000e5a0000021
:1023e800d40a00006bfb0000deff0000ffff0000c6
:1023f800ffff0000ffff0000ffff0000ffff0000dd
:10240800ff7d0000efcc000093400000eb6000006f
:10241800fca00000fce00000fc200000fd600000c3
:10242800fd200000f5a00000d4c00000bb42000061
:102438009b4500008b6b00009cae00009c71000067
:102448008cb30000943300009d340000a5f2000016
:10245800a4f00000b4ca00009b0400009b400000e8
:10246800bb200000e4200000fda00000fda000004b
:10247800fde00000fde00000fde00000fd200000a0
:10248800c48800005a380000beff0000ffff0000ab
:10249800ffff0000ffff0000ffff0000ffff00003c
:1024a800ffff0000ff780000d6460000ab400000a8
:1024b800db200000f4600000fca00000fce000004d
:1024c800fc600000fda00000fd600000fd20000091
:1024d800f5a00000dcc00000b3c000005186000079
:1024e800290d0000638f00007b0d00005bc7000012
:1024f8004101000082000000c3c00000e36000004a
:10250800fca00000fce00000fce00000fc60000013
:10251800f5600000f5200000e58000009b860000c3
:102528006230000084790000ceff0000ffff000049
:10253800ffff0000ffff0000ffff0000ffff00009b
:10254800ffff0000ffff0000ff380000c62d00005d
:102558009c05000093430000a3820000b3c2000062
:10256800bbc20000bb220000b4820000a3420000ee
:1025780093c300007a850000620b000063710000bd
:1025880084b60000b5790000ce790000c6b5000019
:10259800ad700000944a00008b0600008304000020
:1025a800930400009b4300009b4300009b430000f2
:1025b8009304000083080000738d000073b30000cb
:1025c80094790000ce7d0000efff0000ffff0000bf
:1025d800ffff0000ffff0000ffff0000ffff0000fb
:1025e800ffff0000ffff0000ffff0000ff3c0000ae
:1025f800df380000be750000b5330000a5330000c9
:10260800a5f300009cf300009cf300009cf300007d
:1026180094f300009c350000a5f80000bdfb000005
:10262800debe0000f7ff0000ffff0000ffff000014
:10263800ff7e0000efbb0000d6f80000bdb600002a
:10264800ad750000ad340000a53300009d340000d6
:102658009d350000a5b70000ad790000c63c00001c
:10266800e7be0000f7ff0000ffff0000ffff0000cb
:10267800ffff0000ff000000000000000000000055
:1026880000000000000000000080000000000000c2
:10269800feff000001000000feff00000100000036
:1026a80006c000000000000006c000000000000096
:1026b80006c0000000000000feff0000000000004f
:1026c80006c000000000000006c000000000000076
:1026d80006c0000000000000feff0000000000002f
:1026e80006c000000000000006c000000000000056
:1026f8000200000000300000300c00001cf0000058
:102708007ffc00003f300000300c00001c3000004f
:10271800300c00001c300000300c00001c300000a1
:10272800300c00001cf000003ffc00001f300000cf
:10273800300c00001c300000300c00001c30000081
:10274800300c00001c300000300c00001cf00000b1
:102758003ffc00001ff000003ffc00001f3000009d
:10276800300c00001c300000100400000c000000b9
:102778000000000000000000000000000000000051
:102788000000000000c000000008000008c00000b1
:10279800f1ff00001fc00000f0ff00001fc0000094
:1027a800484c00001cc40000dccc00001dcc00001c
:1027b800dc8d00001ddc00008e8d00001dd800009f
:1027c800060e00001ff80000c3ef00001df800000f
:1027d800f1ec00001cd00000601d00001cc00000cf
:1027e8001c7700000cfe00009fe70000003400008a
:1027f80083e300000c300000c3ff00001f3000001e
:10280800c361000000300000e361000000300000f8
:10281800e361000006300000f3ff00000f30000005
:10282800db61000000300000fb610000043800009c
:10283800db6100000e180000cfff00000f18000039
:10284800c761000000980000c7610000000c00008c
:10285800c361000038040000c2ff00003f0600000a
:10286800c001000000020000c001000000000000dc
:102878000000000000000000000000000000000050
:102888000000000000000000000000000000000040
:102898000000000000000000000000000808000020
:1028a80008080000080800000800000000180000e0
:1028b8001800000000000000486c0000241200000e
:1028c8000000000000000000000000000000000000
:1028d80000000000000000000000000024240000a8
:1028e800247f000012120000127f00001212000064
:1028f8001200000000000000000800001c2a000070
:102908002a0a00000c180000282800002a2a0000c3
:102918001c0800000800000000000000222500003c
:1029280015150000152a00005854000054540000e2
:102938002200000000000000000000000c1200004f
:10294800121200000a7600002529000011910000eb
:102958006e000000000000000606000004030000ee
:10296800000000000000000000000000000000005f
:1029780000000000000000004020000010100000cf
:1029880008080000080800000808000010100000ef
:1029980020400000000000000204000008080000b9
:1029a80010100000101000001010000008080000af
:1029b8000402000000000000000000000008000001
:1029c800086b00001c1c00006b08000008000000d9
:1029d80000000000000000000000000000080000e7
:1029e80008080000087f0000080800000808000028
:1029f80000000000000000000000000000000000cf
:102a080000000000000000000000000000060000b8
:102a180006040000030000000000000000000000a1
:102a28000000000000fe00000000000000000000a0
:102a3800000000000000000000000000000000008e
:102a48000000000000000000000000000006000078
:102a58000600000000000000008000004040000068
:102a680020200000101000000808000004040000e6
:102a7800020200000000000000000000182400000e
:102a8800424200004242000042420000422400004c
:102a9800180000000000000000000000080e000000
:102aa80008080000080800000808000008080000de
:102ab8003e00000000000000000000003c42000052
:102ac80042420000202000001008000004420000dc
:102ad8007e00000000000000000000003c420000f2
:102ae8004220000018200000404000004222000060
:102af8001c00000000000000000000002030000062
:102b08002824000024220000227e0000202000004b
:102b18007800000000000000000000007e020000b5
:102b2800020200001a260000404000004222000075
:102b38001c00000000000000000000003824000015
:102b4800020200001a26000042420000422400004f
:102b58001800000000000000000000007e220000b5
:102b680022100000100800000808000008080000f3
:102b78000800000000000000000000003c420000c7
:102b88004242000024180000244200004242000093
:102b98003c000000000000000000000018240000b5
:102ba80042420000426400005840000040240000f7
:102bb8001c000000000000000000000000000000f1
:102bc80000180000180000000000000000180000b5
:102bd80018000000000000000000000000000000d5
:102be80000000000080000000000000000000000d5
:102bf8000808000004000000000000004020000059
:102c08001008000004020000040800001020000062
:102c1800400000000000000000000000000000006c
:102c2800007f000000000000007f0000000000009e
:102c38000000000000000000000000000204000086
:102c480008100000204000002010000008040000c8
:102c58000200000000000000000000003c420000ec
:102c6800424600004020000010100000001800003c
:102c78001800000000000000000000001c220000f6
:102c88005a55000055550000552d000042220000fd
:102c98001c00000000000000000000000808000000
:102ca80018140000142400003c22000042420000d6
:102cb800e700000000000000000000001f220000e4
:102cc800222200001e220000424200004222000090
:102cd8001f00000000000000000000007c4200000f
:102ce8004201000001010000010100004222000031
:102cf8001c00000000000000000000001f2200006f
:102d080042420000424200004242000042220000cb
:102d18001f00000000000000000000003f4200000b
:102d2800121200001e1200001202000042420000af
:102d38003f00000000000000000000003f420000cb
:102d4800121200001e12000012020000020200000f
:102d58000700000000000000000000003c22000006
:102d68002201000001010000712100002222000060
:102d78001c0000000000000000000000e742000006
:102d880042420000427e00004242000042420000ef
:102d9800e700000000000000000000003e080000fe
:102da80008080000080800000808000008080000db
:102db8003e00000000000000000000007c10000041
:102dc800101000001010000010100000101000007b
:102dd800101100000f000000000000007722000022
:102de800120a00000e0a000012120000222200003f
:102df800770000000000000000000000070200004b
:102e0800020200000202000002020000024200006a
:102e18007f0000000000000000000000773600007e
:102e280036360000362a00002a2a00002a2a000026
:102e38006b0000000000000000000000e3460000f6
:102e4800464a00004a5200005252000062620000e6
:102e58004700000000000000000000001c220000e5
:102e68004141000041410000414100004122000071
:102e78001c00000000000000000000003f420000ad
:102e880042420000423e000002020000020200002e
:102e98000700000000000000000000001c220000e5
:102ea8004141000041410000414d00005332000003
:102eb8001c60000000000000000000003f4200000d
:102ec800424200003e12000012220000224200008e
:102ed800c700000000000000000000007c42000065
:102ee8004202000004180000204000004242000096
:102ef8003e00000000000000000000007f490000c4
:102f08000808000008080000080800000808000079
:102f18001c0000000000000000000000e742000064
:102f28004242000042420000424200004242000089
:102f38003c0000000000000000000000e742000024
:102f48004222000024240000141400001808000085
:102f58000800000000000000000000006b490000ad
:102f6800494900004955000055360000222200005a
:102f7800220000000000000000000000e7420000fe
:102f8800242400001818000018240000244200001f
:102f9800e7000000000000000000000077220000a9
:102fa80022140000140800000808000008080000a7
:102fb8001c00000000000000000000007e2100004e
:102fc8002010000010080000040400004242000025
:102fd8003f0000000000000078080000080800001a
:102fe8000808000008080000080800000808000099
:102ff8000878000000000000000200000204000041
:10300800040800000808000010100000202000003c
:1030180020400000400000001e10000010100000ba
:103028001010000010100000101000001010000018
:10303800101e0000000000003844000000000000de
:103048000000000000000000000000000000000078
:103058000000000000000000000000000000000068
:103068000000000000000000000000000000000058
:1030780000000000ff00000006080000000000003b
:103088000000000000000000000000000000000038
:103098000000000000000000000000000000000028
:1030a800000000003c42000078440000424200005a
:1030b800fc00000000000000000000000302000007
:1030c800020200001a2600004242000042260000c8
:1030d8001a000000000000000000000000000000ce
:1030e8000000000038440000020200000244000012
:1030f80038000000000000000000000060400000f0
:103108004040000078440000424200004264000051
:10311800d8000000000000000000000000000000cf
:10312800000000003c4200007e0200000242000055
:103138003c0000000000000000000000f0880000d3
:10314800080800007e0800000808000008080000c1
:103158003e00000000000000000000000000000029
:10316800000000007c220000221c0000023c00003d
:10317800424200003c000000000000000302000082
:10318800020200003a4600004242000042420000ab
:10319800e700000000000000000000000c0c000028
:1031a800000000000e0800000808000008080000e1
:1031b8003e00000000000000000000003030000069
:1031c800000000003820000020200000202000001f
:1031d800202200001e000000000000000302000082
:1031e80002020000721200000a16000012220000fb
:1031f8007700000000000000000000000e0800003a
:103208000808000008080000080800000808000076
:103218003e00000000000000000000000000000068
:10322800000000007f92000092920000929200003d
:10323800b7000000000000000000000000000000cf
:10324800000000003b4600004242000042420000ed
:10325800e70000000000000000000000000000007f
:10326800000000003c4200004242000042420000d0
:103278003c0000000000000000000000000000000a
:10328800000000001b26000042420000422200000d
:103298001e020000070000000000000000000000ff
:1032a8000000000078440000424200004244000050
:1032b80078400000e000000000000000000000006e
:1032c80000000000774c0000040400000404000023
:1032d8001f000000000000000000000000000000c7
:1032e800000000007c420000023c00004042000058
:1032f8003e00000000000000000000000000000088
:10330800080800003e08000008080000080800003f
:103318003000000000000000000000000000000075
:1033280000000000634200004242000042620000c8
:10333800dc000000000000000000000000000000a9
:1033480000000000e74200002424000014080000e8
:10335800080000000000000000000000000000005d
:1033680000000000eb49000049550000552200000c
:103378002200000000000000000000000000000023
:10338800000000007624000018180000182400002f
:103398006e000000000000000000000000000000b7
:1033a80000000000e7420000242400001418000078
:1033b80008080000070000000000000000000000ee
:1033c800000000007e2200001008000008440000f1
:1033d8007e00000000000000c02000002020000047
:1033e80020200000102000002020000020200000e5
:1033f80020c0000000100000101000001010000095
:103408001010000010100000101000001010000034
:103418001010000010000000060800000808000056
:10342800080800001008000008080000080800004c
:1034380008060000000c000032c200000000000076
:103448000000000000000000000000000000000074
:103458000000000000000000415400002b52000052
:10346800535400000d0a000000410000542b0000d6
:10347800435700004d4f0000444500003d31000017
:103488000d0a000000410000542b000043570000c3
:103498004a410000503d00002277000069660000a4
:1034a800695f00007a6f00006d62000069650000c6
:1034b800222c0000227300006c73000039330000d6
:1034c8003036000032320000220d00000a000000f1
:1034d800415400002b430000495000004d550000a6
:1034e800583d0000310d00000a0000004154000062
:1034f8002b4300004950000053450000525600007d
:10350800455200003d3100002c38000037310000e2
:10351800330d00000a000000415400002b43000056
:1035280049500000534500004e4400003d30000063
:103538002c330000300d00000a0000004e6f000020
:10354800772000006973000020000000206400005c
:103558006567000072650000652000006365000073
:103568006c63000075690000732e000020430000a2
:103578006f6c000064000000415400002b43000001
:1035880049500000534500004e4400003d30000003
:103598002c330000320d00000a00000020640000f7
:1035a8006567000072650000652000006365000023
:1035b8006c63000075690000732e0000204e000047
:1035c8006f7200006d6100006c0000004154000043
:1035d8002b43000049500000534500004e440000b2
:1035e8003d3000002c320000390d00000a000000b8
:1035f8002064000065670000726500006520000017
:10360800636500006c63000075690000732e00009c
:10361800204800006f74000000410000542b000097
:1036280043490000504300004c4f00005345000040
:103638003d3000000d0a000000550000454500001f
:10364800413400003636000033000000456d0000ac
:103658006265000064640000656400002053000097
:1036680079730000746500006d2000004465000057
:1036780073690000676e000000410000737300006a
:10368800696700006e6d0000656e00007420000020
:103698003300000053540000415200005400000061
:1036a8003100000032000000330000003400000048
:1036b8003500000036000000370000003800000028
:1036c8003900000053750000636300006573000053
:1036d8007300000046610000696c0000004b0000a8
:1036e8006579000020310000206900007320000087
:1036f80070720000657300007365000064000000cc
:103708004b6500007920000032200000697300003a
:10371800207000007265000073730000656400008b
:10372800004b00006579000020330000206900008c
:10373800732000007072000065730000736500005c
:10374800640000004b650000792000003420000070
:103758006973000020700000726500007373000038
:1037680065640000004b000065790000203500000a
:10377800206900007320000070720000657300006b
:1037880073650000640000004b65000079200000ac
:103798003620000069730000207000007265000088
:1037a8007373000065640000004b00006579000039
:1037b80020370000206900007320000070720000ac
:1037c8006573000073650000640000004b6500002d
:1037d8007920000038200000697300002070000084
:1037e800726500007373000065640000004b000000
:1037f800657900002039000020690000732000006e
:1038080070720000657300007365000064000000ba
:103818004e6f0000204b0000657900002069000011
:10382800732000007072000065730000736500006b
:043838006400000028
:020000040000fa
:10383c000000fa00ccc2a90040fe210011002000bb
:10384c000af30700ccc2a80040fe210011002000a2
:10385c0006f30700cca2a900b0ccb300f900070016
:10386c0090c3b300f0000700c0c2b300ee00070025
:10387c000040eb00ec00070040c3b300ea00070077
:10388c0020c0b300e8000700f0ccb300ed00070047
:10389c000040eb00e400070010ccb300e20007008e
:1038ac0000c3b300e000070080ceb300e5000700c2
:1038bc0050c8b300dc0007000040eb00da00070042
:1038cc0080c7b300d8000700a0ceb300dd0007000e
:1038dc000040eb00d40007000040eb00d2000700d2
:1038ec00d0ceb300d700070040c6b300ce0007000f
:1038fc0030c0b300cc00070020c1b300ca000700e1
:10390c0010c8b300c800070070cfb300cd0007008b
:10391c0000c2b300c400070000ccb300c90007000c
:10392c0030c2b300c000070010ccb300c5000700c4
:10393c0000c1b300bc00070050ccb300c1000700ad
:10394c00e0c3b300b800070080c2b300b6000700a4
:10395c0070ccb300bb00070060c8b300b200070016
:10396c0060c3b300b700070080c4b300ae0007000b
:10397c00a0c3b300b300070050c5b300aa000700f2
:10398c0010cbb300af0007000040eb00a60007000f
:10399c0080c1b300a400070060cbb300a9000700ee
:1039ac0080c0b300a000070020c8b3009e00070031
:1039bc0070c2b3009c00070020cfb300a100070029
:1039cc000040eb009800070060c2b3009d000700a8
:1039dc0010c0b3009400070000ceb300990007009c
:1039ec00f0c0b3009000070010c3b3008e000700b6
:1039fc00b0c2b3008c000700c0c0b3008a0007003f
:103a0c00e0c0b3008800070080c0b3008600070048
:103a1c00e0c4b3008400070010cfb300820007009d
:103a2c0070c3b3008000070070c0b3007e000700b5
:103a3c0000c1b3007c00070030c0b3007a0007005f
:103a4c00e0c0b3007800070090c0b3007600070018
:103a5c000040eb007400070010ceb30079000700a3
:103a6c000040eb0070000700e0c0b3006e000700e0
:103a7c0040c1b3006c00070030c0b3006a000700ff
:103a8c0010c1b3006800070070c0b30066000700e7
:103a9c0010c3b3006400070010ccb3006200070031
:103aac0080c4b3006000070080c0b3005e00070054
:103abc00f0c0b3005c000700c0c0b3005a000700a0
:103acc0010c3b3005800070060c3b30056000700d2
:103adc00f0c0b30054000700a0c2b30059000700a7
:103aec000040eb00500007000040eb004e000700c8
:103afc000040eb004c000700f0ceb3004a0007007a
:103b0c00b0c2b3004f0007000040eb0046000700b6
:103b1c000040eb004400070010c0b3004200070057
:103b2c00f0c3b3004000070010c1b300450007000c
:103b3c0080f52b00610020004cf2070090c2b3000e
:103b4c0040000700c0c2b3003e0007000080eb003d
:103b5c00020007000080fa00000006000800fa00ce
:103b6c00300798003e02900024079800f3132000c1
:103b7c00f20e20008000eb000000eb004300070079
:103b8c000002eb00040f78000d0037000002eb0080
:103b9c0014079800050037003e0090001400070041
:103bac001e0290000402e800140798009e02900088
:103bbc00f4132000848f5200f7ff36001e0fe8002c
:103bcc00f40e20009e027800848f5200efff360026
:103bdc000080fa00000006000200fa00004f780096
:103bec001e407800d60e07000080fa000000060088
:103bfc000200fa00000f7800cce2a8001e02780048
:103c0c004822de000442780004407800f2ff0700ee
:103c1c001e0278000442780004407800eeff070092
:103c2c000080fa00000006000200fa00004f780045
:103c3c00cce2a8001e407800e7ff07000080fa00e5
:103c4c00000006000200fa00004f7800cce2a90048
:103c5c001e407800e0ff07000080fa00000006001c
:103c6c000400fa00000f7800110798001e0278007b
:103c7c000442780004407800f2ff07001e00900018
:103c8c00dbff07000080fa00000006000800fa00c5
:103c9c00000f78001107980022079800330798004e
:103cac00a0c2b300e7ff07001e0278004822de0026
:103cbc000442780004407800dbff07001e02780005
:103ccc000442780004407800d7ff07002e029000d1
:103cdc004822de000442780004407800d2ff07003e
:103cec002e0290000442780004407800ceff0700ba
:103cfc00b0c2b300d3ff07001e0290004822de00c2
:103d0c000442780004407800c7ff07001e029000b0
:103d1c000442780004407800c3ff07003e02900084
:103d2c004822de000442780004407800beff070001
:103d3c003e0290000442780004407800baff07006d
:103d4c00c0c2b300bfff07000080fa0000000600ed
:103d5c000a00fa002007980031079800024f9800db
:103d6c00f4332900140798003e029000ff02420031
:103d7c002e0290007f024200850178000401780039
:103d8c00be0090002e009000c0ff07000e4a90006d
:103d9c000482fb004722dd009e0290000482420058
:103dac00140798000042eb00144798001e003700df
:103dbc000042eb00044f7800120037001e02900006
:103dcc00144278008482fb001e4378000682fb00bc
:103ddc0004aade006102620004427800e04f520047
:103dec0004003200944280000400780080ff070039
:103dfc000300370084428000040078007cff070039
:103e0c001e4fe8001e427800e74f5200ebff3600d1
:103e1c001e0290000402e800140798001e42900055
:103e2c000442e800144798001e429000e04f5200f4
:103e3c00dfff3d000080fa00000006000400fa00dd
:103e4c00000f7800110798009e0190001e01780069
:103e5c009e0090001e0078008cff070094428000aa
:103e6c000400780062ff07000080fa0000000600e2
:103e7c000400fa00000f78001107980094428000ab
:103e8c009e0290000500e8009e03e8009e02900050
:103e9c000503e9009e02e900800178000701780023
:103eac008600780005007800a60107000080fa0063
:103ebc00000006001c00fa00200f9800310f98003b
:103ecc00420f9800530f98000002eb001407980063
:103edc000002eb0024079800ce0a90002e0a9000f6
:103eec000482520034079800de0a90003e0a9000cb
:103efc0004825200440798002e0a9000040f980088
:103f0c003e0a9000140f98003e029000e00f520001
:103f1c000300340014002000640798000b003700e5
:103f2c003e029000e00f520003003a000002eb004a
:103f3c0064079800050037000082eb0064079800c6
:103f4c003e0290000402ea00340798004e029000f2
:103f5c00e00f520003003400140020007407980096
:103f6c000b0037004e029000e00f520003003a00a5
:103f7c000002eb0074079800050037000082eb008c
:103f8c00740798004e0290000402ea00440798005f
:103f9c00be0290004e029000848f52000300340049
:103fac003e02900054079800020037004e02900029
:103fbc00540798000002eb00040f7800260037002d
:103fcc009e0a90000e0a900085007800040078008c
:103fdc009aff07009e0290003e029000048242006d
:103fec0014079800ae0290004e029000048242002a
:103ffc00240798009e0290005e029000848f52006d
:10400c00080034009e0290005e0290000482520070
:10401c00140798008e0a90006e02900004824200f1
:10402c00040f9800ae0290005e029000848f520044
:10403c0008003400ae0290005e0290000482520030
:10404c00240798009e0a90007e0290000482420091
:10405c00140f98001e0fe8005e0290000402e800a6
:10406c009e0f5200d6ff31000080fa0000000600bf
:10407c000800fa00000f780011079800220798003a
:10408c00330798009e0190002e0190009e00900036
:10409c001e00780087ff0700be0190001e0178000b
:1040ac009e0090001e00780082ff0700be01900069
:1040bc002e019000be0090001e0078007dff0700ce
:1040cc00be0190002e0190009e0090002e009000ea
:1040dc0078ff07000080fa00000006000c00fa00d0
:1040ec003007980041079800224f98000002eb001f
:1040fc00040f78002e4a90000482fb0014079800ed
:10410c002e4a90000482fb0004024200630212005b
:10411c00240798006f0037001e027800ce02900032
:10412c00848252001e0290003e0390000402530051
:10413c00850078000400780040ff07001e0278001c
:10414c00ce029000848252001e0390003e0290002a
:10415c0004024300850078000400780037ff070054
:10416c009e0290004e029000848242001e02780053
:10417c003e03900004025300850078000400780090
:10418c002eff07001e027800ce029000848252009f
:10419c001e0290003e03900004025300850078003c
:1041ac000400780025ff07001e029000ce0290004c
:1041bc00848252001e0278003e03900004025300d9
:1041cc0085007800040078001cff07009e02780030
:1041dc004e029000848242001e0390003e0290002a
:1041ec0004024300850078000400780013ff0700e8
:1041fc001e029000ce029000848252001e037800b2
:10420c003e02900004024300850078000400780010
:10421c000aff07009e0290004e029000848242002a
:10422c001e0378003e0290000402430085007800d3
:10423c000400780001ff07009e0278004e029000f7
:10424c00848242001e0290003e0390000402530040
:10425c008500780004007800f8fe07001e0fe800c7
:10426c002e029000e00f520007003d001e02780065
:10427c004222dd0066024200ae029000048242003f
:10428c00240798000a0037001e0290001e0212003c
:10429c004222dd006a024200ae029000048242001b
:1042ac00240798001e0290000402e90014079800ed
:1042bc009e0290004e029000848242001e03780001
:1042cc003e02900004024300850078000400780050
:1042dc00dafe07001e0290009e027800848f5200c6
:1042ec008dff34000080fa00000006000e00fa007a
:1042fc0020479800314798004247980033079800b0
:10430c004407980055079800660798004e029000e5
:10431c00944288003e4290008483fb002e42900021
:10432c008482fb004e4290000482fb000482420017
:10433c000482e900040378003e4290008482fb0072
:10434c002e4290000482fb000482e8008701780072
:10435c00060178008500780004007800d5fe07007f
:10436c003e4290000482fb000402e80084027800c4
:10437c002e4290000482fb000402e80085007800c5
:10438c0004007800adfe07003e4290000482fb0062
:10439c000402e800840278002e4290000483fb00a3
:1043ac004e4290000482fb00040243000402e90028
:1043bc008500780004007800a0fe070024c0b3003c
:1043cc00044f78001a0037003e4290008482fb00b4
:1043dc001e4378000682fb000482420084027800af
:1043ec002e4290000482fb008500780004007800c7
:1043fc0092fe07003e4290008482fb001e43780030
:10440c000682fb0004824200840278002e42900057
:10441c000483fb004e4290000482fb000402430024
:10442c00850078000400780084fe07001e4fe80029
:10443c001e4278008482fb004e4290000482fb00f6
:10444c000482e900848f5200dfff34003e4290006a
:10445c008482fb004e4290000482fb0004824200e6
:10446c000402e900840278002e4290000482fb00d2
:10447c000402e80085007800040078006ffe070055
:10448c003e4290008482fb004e4290000482fb006e
:10449c00048242000402e900840278002e4290005b
:1044ac000483fb004e4290000482fb000402430094
:1044bc000402e90085007800040078005ffe070024
:1044cc003e4290008482fb004e4290000482fb002e
:1044dc0004824200840378002e4290008482fb0008
:1044ec004e4290000482fb00048242000482e900e8
:1044fc00040378003e4290008482fb004e42900000
:10450c000482fb0004824200840278002e42900058
:10451c000482fb000482e800870178000601780021
:10452c00850078000400780062fe07003e019000d0
:10453c00ee0090005e009000330107000080fa004e
:10454c00000006000e00fa002007980031079800c2
:10455c00420798005307980064079800de0190000a
:10456c004e019000be0090002e009000c7fd070089
:10457c003e029000040f78000d0037002e029000d0
:10458c0014079800050037006e00900098fd070096
:10459c001e0290000402e800140798009e0290008e
:1045ac004e029000848f5200f7ff36001e0fe80079
:1045bc005e0290009e027800848f5200efff36005e
:1045cc000080fa00000006000e00fa004007980078
:1045dc0051079800424f9800534f98004e0290009c
:1045ec00240798009542800035079800ce02900071
:1045fc00040e2000848f52007b003e00de029000ef
:10460c0004132000848f520079003e00ce4a9000a3
:10461c0004ceb30004c24200444f98005e029000e6
:10462c00ef0242004e0290006702420085017800c2
:10463c0004017800de0090004e00900093fd07000e
:10464c005e4a9000e04f520035003a000042eb0009
:10465c00144798002e0037004e4a90000482fb004d
:10466c00c422dd001e4290000482fb000482420042
:10467c00f5432900654f7a000042eb00244798006f
:10468c00180037009e4278000582fb006102620030
:10469c0004427800e04f5200030032003e029000ca
:1046ac0094428800020037008442800094428800c3
:1046bc0094428000040078004dfd07009e42780073
:1046cc000582fb000402d100044f78004e029000da
:1046dc000402e800440798002e4290000442e800cf
:1046ec00244798002e429000e74f5200e5ff360019
:1046fc002e029000440798005e0290000402e8002d
:10470c00540798001e4290000442e8001447980099
:10471c001e429000ef4f5200cfff36002f003700a3
:10472c000042eb0014479800290037004e4a9000d5
:10473c000482fb00c422dd001e4290000482fb00b8
:10474c0004824200f5432900654f7a000042eb00d9
:10475c0024479800180037009e4278000582fb0021
:10476c006102620004427800e04f52000b003200fc
:10477c001e4290008482fb005e0290008482420004
:10478c002e4290000483fb004e0290000402430072
:10479c008500780004007800a8fd07009e42780090
:1047ac000582fb000402d100044f78002e429000d9
:1047bc000442e800244798002e429000e74f520034
:1047cc00e5ff36001e4290000442e80014479800b2
:1047dc001e429000ef4f5200d4ff36003e02900074
:1047ec0094428800030037000000000001003700ed
:1047fc00000000000080fa00000006000e00fa0025
:10480c00200798003107980042079800530798003a
:10481c00444f98000042eb00144798004e02900061
:10482c000500200044079800550798000042eb0053
:10483c00044f78003c0037004e4a90001e42520054
:10484c000442e90084407800a0c0b300980007003f
:10485c000002be000401be004e009000de0090007d
:10486c00d4ef07000002be00a200200003002000cd
:10487c000400be00dfef07000002be0024479800d2
:10488c001e429000e04f520018003a001e42780081
:10489c008482fb004e4a90000482fb000402e90073
:1048ac00848f520011003d002e429000e04f5200c8
:1048bc000c003a009e4278000582fb004322dd008a
:1048cc00840278002e029000048242008041eb00aa
:1048dc0002c2b300be009000040078003aff07004b
:1048ec001000370014c0b300144798002e429000fb
:1048fc0006c3b300864242001e4378000682fb00ca
:10490c004322dd00040378002e02900004024300d1
:10491c008041eb0005417800be0090000400780057
:10492c0029ff07001e4fe8004e4a90009e42780077
:10493c0084cf5200c0ff39000080fa00000006004e
:10494c000a00fa00889fbe00100798002107980003
:10495c0032079800034f98000042eb00044f780098
:10496c00220037003e0290006124b8000e4a9000ed
:10497c001e4252000442e90084407800a0c0b300fb
:10498c004b0007000002be000401be000800be0080
:10499c0088ef07000002be00a200200003002000e8
:1049ac000400be0093ef07000002be0014479800fd
:1049bc001e42900006c3b300864242001e4378009c
:1049cc000682fb004322dd00040378001e029000e7
:1049dc00040243008041eb0005417800ae009000da
:1049ec0004007800f8fe07001e4fe8000e4a900005
:1049fc009e42780084cf5200daff39004f04be008b
:104a0c000080fa00000006000600fa00000f780093
:104a1c0011079800220798001f003700040e200091
:104a2c009e027800848f5200050036000002eb00d5
:104a3c00040f78001e0290007002420014079800c8
:104a4c009e02900004132000848f52000600360052
:104a5c000002eb00040f78001e0278001407980087
:104a6c0000802f003dfc07002e02900014427800bd
:104a7c008041eb00044178009e0090001e007800fd
:104a8c00d1fe07001e027800680f42002e02900033
:104a9c000402e800240798002e02900014427800cb
:104aac00e04f5200ddff3a000080fa0000000600e3
:104abc000600fa0040479800514798001400200067
:104acc0005002000048fbe00110037004e429000fc
:104adc000482fb00050020001e03900004b3b90003
:104aec00060378009e03780005b8b90080037800af
:104afc00070343009e037800040278000722b800e5
:104b0c000503430086027800048fbe00048fbe00ac
:104b1c005e4290000482fb000402ea004f22de0099
:104b2c0004427800de4290008542e9005547980027
:104b3c00e04f5200e5ff3a001e02be000400be002a
:104b4c000080fa00000006000000fa0054168000f5
:104b5c004e22de0061426200044078000080fa00c0
:104b6c00000006000000fa00cd62a800cd42a800ab
:104b7c00cd82a800cd42a8000080fa0000000600fb
:104b8c000400fa00204798000042eb00044f780024
:104b9c00cd42a9000042eb00044f7800170037000b
:104bac002e429000044242002447980014028000d8
:104bbc0004427800614262000482fb0061026200e0
:104bcc004c22dd0066168000f5ff2e008502630086
:104bdc000502720064168800cd42a9000000000096
:104bec000000000000000000cd42a8000000000002
:104bfc0000000000000000001e4fe8001e4278007c
:104c0c00e74f5200e6ff36000080fa000000060075
:104c1c000400fa000042eb00044f78000002eb00a5
:104c2c00140798000042eb00044f78001400370082
:104c3c001e0290000402420014079800cd42a80006
:104c4c00000000000000000000000000cd42a900a0
:104c5c00000000000000000000000000551680005d
:104c6c000400220004826200e00f520003003200b4
:104c7c001e0290000400a000140798001e4fe800cc
:104c8c001e427800eb4f5200e9ff36001e029000e6
:104c9c00040078000080fa00000006000400fa000e
:104cac0020479800cd62a9002e409000b4ff070069
:104cbc00cd42a80000000000000000000000000031
:104ccc0000000000cd42a900000000000000000020
:104cdc000000000000000000cdff0700000278007b
:104cec00040f7800cd62a8001e0278000400780042
:104cfc000080fa00000006002800fa0060679800a7
:104d0c000002eb00240798000002eb00040f78006f
:104d1c00090037006e609000e0ff07008002780009
:104d2c001e0278000402420004024700680242009e
:104d3c00050a78001e0fe8001e027800ee0f5200e4
:104d4c00f4ff36000002eb00040f78002800370057
:104d5c001e02e80014079800210037001e0278009c
:104d6c000402420004024700c40290001e0290009c
:104d7c00040242000402470044029000848f520057
:104d8c00140036001e0278000402420004024700a0
:104d9c0044009000300798001e029000040242006c
:104dac0004024700c40290001e0278000402420074
:104dbc000402470068024200050a78001e029000b7
:104dcc00040242000402470068024200be00900048
:104ddc00010a78001e0290000402e80014079800f3
:104dec001e029000ee0f5200dcff36001e0fe80092
:104dfc001e027800ed0f5200d5ff36000002eb00ca
:104e0c002407980054002000040f78000800370095
:104e1c001e02780004024200040247004402900083
:104e2c00ae02900004824200240798001e0fe80096
:104e3c001e027800e90f5200f5ff3600ae0290001a
:104e4c0054002000110009008482d8000002780070
:104e5c00340798003e029000040078000080fa00ad
:104e6c00000006000800fa0020079800310798009f
:104e7c0000cdb300a0ff070000027800040f7800fb
:104e8c0000c9b3009cff07000002780014079800cb
:104e9c00340620009e027800848f520004003600f5
:104eac009e02900034062000848f520002003e00c7
:104ebc000042eb00060037002e0290001e0a78001c
:104ecc003e0290009e029000050a780014c0b300c8
:104edc00044078000080fa00000006000e00fa0082
:104eec005007980061079800e40247000e82e80022
:104efc008500780004007800daff07000042780093
:104f0c00044f78001e427800e04f520002003a0035
:104f1c000042eb003f003700e80247006602470002
:104f2c008500780004007800ceff0700004278006e
:104f3c00044f78001e427800e04f520002003a0005
:104f4c000042eb0033003700be0290001e029000be
:104f5c00848f520005003e003e029000f402420095
:104f6c001e029000848f520009003e009e029000a9
:104f7c003e029000848f520025003e001e029000dd
:104f8c00f40242003e029000848f52002000360052
:104f9c00ce0290002e029000848f520005003e003d
:104fac004e029000f40242002e029000848f5200b8
:104fbc0009003e00ae0290004e029000848f520019
:104fcc0013003e002e029000f40242004e029000ac
:104fdc00848f52000e0036009e0290003e0290001c
:104fec00048242008402d1005e029000050a78001f
:104ffc00ae0290004e029000048242008402d10066
:10500c006e029000050a780014c0b300010037004e
:10501c000042eb00044078000080fa00000006001b
:10502c000600fa000042eb00044f78001d00370028
:10503c00000000008185200060852000a7ff07008c
:10504c0000427800e04f5200faff320020ff2800a7
:10505c000100200005ed070000000000e4024700fd
:10506c000e82e80085007800040078009bff0700a2
:10507c0000427800e04f5200f8ff3200b542800049
:10508c001e029000848f520006003a00c542800038
:10509c002e029000848f520002003a0014c0b3001c
:1050ac00044f78001e427800e04f5200e0ff3200bf
:1050bc001e427800044078000080fa0000000600d0
:1050cc000400fa00000f7800110798001e02780007
:1050dc00ed0242001e0378006c0253009e0190000a
:1050ec00050178009e0090000400780071fb070019
:1050fc001e029000ed0242001e0290006c02520053
:10510c00850178001e017800840078001e0078006c
:10511c0068fb07001e0290008402e8001e02e800f3
:10512c00850078000400780044fb07001e02900004
:10513c008402e8001e02e900850078000400780073
:10514c003efb07001e0290008402e9001e02e800ec
:10515c00850078000400780038fb07001e029000e0
:10516c008402e9001e02e900850078000400780042
:10517c0032fb07000080fa00000006000200fa0073
:10518c000042eb00044f78008185200060852000f0
:10519c0052ff070000427800e04f52006e003200d0
:1051ac0014c0b300044f7800b54280006443800003
:1051bc00848f520019003600b44280006123b8007d
:1051cc0064438000050020000402530085825b00cc
:1051dc00863e200006abb900060378006020b900bb
:1051ec00800378000703430084027800843e20008b
:1051fc00042ab80005034300860278004643800069
:10520c00070020000601be000400be0069ed070087
:10521c000002be00040278001800370064438000ce
:10522c006123b800b4428000050020000402530042
:10523c0085825b00863e200006abb9000603780031
:10524c006020b900800378000703430084027800d3
:10525c00843e2000042ab80005034300860278002f
:10526c0046438000070020000601be000400be007b
:10527c0050ed07000002be0004027800d442880002
:10528c00c542800074438000848f520019003600a0
:10529c00c44280006123b8007443800005002000e4
:1052ac000402530085825b00863e200006abb900e9
:1052bc00060378006020b9008003780007034300e0
:1052cc0084027800843e2000042ab80005034300c1
:1052dc008602780056438000070020000601be00bd
:1052ec000400be0033ed07000002be00040278008b
:1052fc0018003700744380006123b800c44280005a
:10530c00050020000402530085825b00863e2000cd
:10531c0006abb900060378006020b9008003780062
:10532c000703430084027800843e2000042ab8005e
:10533c0005034300860278005643800007002000d6
:10534c000601be000400be001aed07000002be00fc
:10535c0004027800e44288001e4278000440780081
:10536c000080fa00000006003e00fa00889fbe0094
:10537c000042eb00044f78000042eb00044f780031
:10538c00f4012000944288000082eb0084428800e3
:10539c000080eb00f1f9070004802f009442880094
:1053ac000080eb00edf90700210320002003200012
:1053bc0043ff070003003700000000000100370026
:1053cc0000000000551680000400240004826200d6
:1053dc00e00f5200f8ff3a0011ff0700004278007e
:1053ec00e04f5200110032001e4278000483fb0093
:1053fc00b4428000050020004333dd000603470063
:10540c007e034300048bbe009e4278000583fb00a4
:10541c00c4428000050020004333dd000603470032
:10542c002602b000048bbe001e4fe8009e4278009e
:10543c000582fb006123b9000082eb008082eb0047
:10544c000602420087824a00360020000700200036
:10545c00860f5200878f5a00d9ff3e00046001006e
:10546c00030037000e003700190037002400370006
:10547c000080eb00b9f90700000000005516800011
:10548c000400240004826200e00f5200fbff320093
:10549c0021032000d00b200009ff0700c1033700b7
:1054ac000080eb00adf907000000000055168000ed
:1054bc000400240004826200e00f5200fbff320063
:1054cc00d110200020032000fdfe0700b50337009b
:1054dc000080eb00a1f907000000000055168000c9
:1054ec000400240004826200e00f5200fbff320033
:1054fc00d1102000d00b2000f1fe0700a9033700cb
:10550c000080eb0095f907000000000055168000a4
:10551c000400240004826200e00f5200fbff320002
:10552c003e139000ce1390007e0a90008e129000d5
:10553c00840f5300858f5b001c0036003e139000d7
:10554c00ce1390007e0a90008e129000040253003d
:10555c0085825b0061024200e0824a00863e2000a8
:10556c0006abb900060378006020b9008003780010
:10557c000703430084027800843e2000042ab8000c
:10558c000503430086027800c208200003002000b7
:10559c000400be0087ec07000002be000400be0041
:1055ac00f1eb07000002be001d0037007e0b9000df
:1055bc008e1390003e129000ce1290000402530005
:1055cc0085825b00863e200006abb900060378009e
:1055dc006020b90080037800070343008402780040
:1055ec00843e2000042ab80005034300860278009c
:1055fc0086c12f00f7ff2f000402430085824b0069
:10560c00c2082000030020000400be0069ec070063
:10561c000002be000400be00d3eb07000002be0077
:10562c0014079800250798003e139000ce139000a5
:10563c007e0a90008e129000840f5300858f5b00c1
:10564c00190036007e0a90008e1290000400be00f5
:10565c00c5eb07000004be000200200083242400d8
:10566c001e009000ae00900003ec07000002be008c
:10567c0002002000a34724000400be00bceb07007e
:10568c000002be000401be000800be005cec070076
:10569c000002be000400be002bec07000002be009e
:1056ac0004027800180037007e0a90008e129000d9
:1056bc000400be00aceb07000004be00020020009a
:1056cc00832424001e009000ae009000eaeb07003b
:1056dc000002be0002002000a34724000400be000c
:1056ec00a3eb07000002be000401be000800be00d0
:1056fc0044ec07000002be000400be0012ec0700e0
:10570c000002be0004027800340798001e1b9000b3
:10571c00ae1b90001e129000ae129000840f53002e
:10572c00858f5b001e0036001e1b9000ae1b900088
:10573c001e129000ae1290000402530085825b0092
:10574c00863e200006abb900060378006020b90045
:10575c00800378000703430084027800843e200015
:10576c00042ab800050343008602780086c12f0086
:10577c00f7ff2f000402430085824b00c20d20006e
:10578c00030020000400be000aec07000002be006b
:10579c000400be0074eb07000002be001d003700c1
:1057ac001e139000ae1390001e1a9000ae1a9000bb
:1057bc000402530085825b00863e200006abb900d4
:1057cc00060378006020b9008003780007034300cb
:1057dc0084027800843e2000042ab80005034300ac
:1057ec008602780086c12f00f7ff2f0004024300c9
:1057fc0085824b00c20d2000030020000400be0077
:10580c00eceb07000002be000400be0056eb0700e4
:10581c000002be0044079800550798001e1b90001c
:10582c00ae1b90001e129000ae129000840f53001d
:10583c00858f5b00190036001e129000ae1290008e
:10584c000400be0048eb07000004be00020020006c
:10585c00832424004e009000de00900086eb0700ad
:10586c000002be0002002000a34724000400be007a
:10587c003feb07000002be000401be000800be00a2
:10588c00dfeb07000002be000400be00aeeb070019
:10589c000002be0004027800180037001e129000af
:1058ac00ae1290000400be002feb07000004be00f7
:1058bc0002002000832424004e009000de009000a3
:1058cc006deb07000002be0002002000a34724007d
:1058dc000400be0026eb07000002be000401be005f
:1058ec000800be00c7eb07000002be000400be00ab
:1058fc0095eb07000002be000402780064079800d4
:10590c003e1b9000ce1b90007e1290008e1a9000d1
:10591c00840f5300858f5b001c0036003e1b9000eb
:10592c00ce1b90007e1290008e1a90000402530041
:10593c0085825b0061024200e0824a00863e2000c4
:10594c0006abb900060378006020b900800378002c
:10595c000703430084027800843e2000042ab80028
:10596c000503430086027800c208200003002000d3
:10597c000400be008feb07000002be000400be0056
:10598c00f9ea07000002be001d0037007e139000ec
:10599c008e1b90003e1a9000ce1a90000402530009
:1059ac0085825b00863e200006abb90006037800ba
:1059bc006020b9008003780007034300840278005c
:1059cc00843e2000042ab8000503430086027800b8
:1059dc0086c12f00f7ff2f000402430085824b0085
:1059ec00c2082000030020000400be0071eb070079
:1059fc000002be000400be00dbea07000002be008d
:105a0c0074079800050f98003e1b9000ce1b900069
:105a1c007e1290008e1a9000840f5300858f5b00cd
:105a2c00190036007e1290008e1a90000400be0001
:105a3c00cdea07000004be000200200083242400ed
:105a4c007e0090008e0890000beb07000002be0059
:105a5c0002002000a34724000400be00c4ea070093
