:020000040000fa
:080000000002040000000000f2
:020000040000fa
:10040000af8520000e7f24000e0188000000000050
:10041000000020000000e000020032000001200087
:10042000200288000c000700c07e20000100200090
:100430001f000700000020000000e0000200320062
:1004400000000200000000003c0702000000000065
:100450000040da000000fe004440a900c003200074
:100460000000e0000300320000002000a00188002e
:100470004440a80000000600f03fb1000180b10038
:1004800006003500ee03090000000000403fb10007
:100490000180b100fbff3d001000b000203fb00024
:1004a0000200350000800900000000000000060086
:1004b00091018800800078000000eb0015003700f3
:1004c000e280400032a0b4009101ba00e280400016
:1004d00032a0b4009102ba00e280400032a0b40021
:1004e0000002eb00472bde00f507b200602ce100b4
:1004f00004003a000059eb008301e900fdff3e00d3
:10050000040037006128e100010032000082eb00a6
:10051000040007001101ba000200e000e8ff3a0001
:10052000000006003159ba008301e9000c003200d6
:100530002159ba008301e900080032000400e000fc
:1005400003003a00e280400032a0b400f5ff37001b
:1005500011d9ba008301e900faff3a008100e800ee
:10056000e180400032a0b400000006000040da0044
:100570000000fe006011b80091003700889fbe00a7
:100580008a9fbe008c1f7800bc000700c3003300a8
:1005900003866c006450e1002e0032006420e1000c
:1005a000330032006150e1002f0032006120e10091
:1005b0003100320085855500eb07b00009002000ae
:1005c00008042000050037000804440089844c001a
:1005d0000a0031000603430087834b0000015300eb
:1005e00081815b00f8ff33000203be000800a00019
:1005f0000804440089844c00f6ff3900c639dd0048
:100600008301730001003200130020008904d1002f
:100610000884d3000998a300050032000800a70051
:100620000300a0008904d1000884d3008b05e800f2
:100630008904d1000884d3000001eb000281d200bc
:10064000a600070001f0a1000cf0a70001f0a00037
:100650009b0037006420e1009d0032000801be00cd
:100660000200be00f7ff37006120e1009800320071
:100670006000b800f3ff37000000200001f82700f9
:10068000f0ff3700889fbe008a9fbe008c1f780055
:100690007a0007008100330003866c006450e1009b
:1006a000240032006420e100270032006150e100a4
:1006b000220032006120e100210032008b854200df
:1006c000eb07b1000134b800003ab800080442005a
:1006d00089844a00013ab8000030b80088804000a0
:1006e00009014a00040033000000400081804800f6
:1006f000020149008b05e900c909dd008301700092
:100700000100320013002000c814de004814dd0090
:100710004709de001200b200c808de00088470003d
:100720006e00070001f0a1000cf0a70001f0a0008e
:10073000630037006120e100650032000801be005f
:100740000200be00f7ff37006150e100fcff3a00f5
:100750005f0037000001be00860007000470a7009c
:1007600003f0a10003f8a30013003a006509b100eb
:1007700010003200090035006928e1000200350050
:1007800001002800000005000000400081804800b2
:100790008502e900fcff3a0000000600f88f4200e5
:1007a000050035008100d1000080d3008502e800fb
:1007b000fcff3a00000006008000eb00000005008e
:1007c000889fbe008a9fbe000082700004027100f4
:1007d00004827100260032000004be000200be0048
:1007e0006011b8006b092000950220000182cf0043
:1007f0000a0039000541b1000082cf00070039002e
:100800000541b1000982cf00040039000541b10063
:100810000882cf00010039000541b10005425200b5
:10082000120032000a003b00828171006101640005
:100830008100d1000080d3008984d3000884d300d4
:100840008b05e8000442e800f7ff3a000700370094
:100850000804440089844c0000004800818048005e
:100860008b05e9000442e900f9ff3a001b0007008c
:100870004f05be004f04be00000006000004be008d
:100880003c0007000003be000405be000200be00dd
:1008900038000700844f7500000006000200be000b
:1008a0006450e100050036006420e10002003600db
:1008b0000968a30001003a000800be000160a00022
:1008c0004f0678004f05be004f04be000000060032
:1008d000f0ff2f00f1ff2700f9ff37008100200013
:1008e000618055000b003d000b00200061fe2f00d1
:1008f0000100e1001d00340082817100610164008b
:100900008904d1000884d3000000e800faff3a000f
:1009100071002000610064000300700002006000ac
:100920000900320061044400e0844c000988a500fd
:10093000050032008b05e8006808e10002003a007b
:100940008904d1000884d300f20f20000258e1008e
:1009500005003d00c75ddd00f907b2008980750024
:1009600008007800000006000bf827008b007800d4
:1009700000000500c70ade00f107b200f50fb20063
:1009800008003200e1cf4200020032000170a000f6
:1009900024000500810f70000100320004080500ea
:1009a00044000500810f700002003a0014000500a9
:1009b0008502e9000000400081c04800fcff3b00c8
:0809c0000170a00024000500f5
:020000040000fa
:0200000401f009
:04000c0078ff000079
:020000040000fa
:0200000401f009
:04001000bbff000032
:020000040000fa
:0200000401f009
:040014007fff00006a
:020000040000fa
:0200000401f009
:04001c00dfff000002
:020000040000fa
:10000800b6020000b6020000b6020000b602000008
:10001800b6020000b6020000b6020000b6020000f8
:10002800b6020000b6020000b6020000b6020000e8
:10003800b6020000b6020000b6020000b6020000d8
:10004800b6020000b6020000b60200005e0600001c
:100058004a06000028070000b6020000b6020000a9
:10006800b6020000b6020000b6020000b6020000a8
:10007800b6020000b6020000b6020000b602000098
:10008800b6020000b6020000b6020000b602000088
:10009800b6020000b6020000b6020000b602000078
:1000a800b6020000b6020000b6020000b602000068
:1000b800b6020000b6020000b6020000b602000058
:1000c800b6020000b6020000b6020000b602000048
:1000d800b6020000b6020000b6020000b602000038
:1000e800b6020000b6020000b6020000b602000028
:1000f800b6020000b6020000b6020000b602000018
:10010800b6020000b6020000b6020000b602000007
:10011800b6020000b6020000b6020000b6020000f7
:10012800b6020000b6020000b6020000b6020000e7
:10013800b6020000b6020000b6020000b6020000d7
:10014800b6020000b6020000b6020000b6020000c7
:10015800b6020000b6020000b6020000b6020000b7
:10016800b6020000b6020000b6020000b6020000a7
:10017800b6020000b6020000b6020000b602000097
:10018800b6020000b6020000b6020000b602000087
:10019800b6020000b6020000b6020000b602000077
:1001a800b6020000b6020000b6020000b602000067
:1001b800b6020000b6020000b6020000b602000057
:1001c800b6020000b6020000b6020000b602000047
:1001d800b6020000b6020000b6020000b602000037
:1001e800b6020000b6020000b6020000b602000027
:0801f800b6020000b60200008f
:020000040000fa
:10020800b6020000b6020000b6020000b602000006
:10021800b6020000b6020000b6020000b6020000f6
:10022800b6020000b6020000b6020000b6020000e6
:10023800b6020000b6020000b6020000b6020000d6
:10024800b6020000b6020000b60200005e0600001a
:100258004a06000028070000b6020000b6020000a7
:10026800b6020000b6020000b6020000b6020000a6
:10027800b6020000b6020000b6020000b602000096
:10028800b6020000b6020000b6020000b602000086
:10029800b6020000b6020000b6020000b602000076
:1002a800b6020000b6020000b6020000b602000066
:1002b800b6020000b6020000b6020000b602000056
:1002c800b6020000b6020000b6020000b602000046
:1002d800b6020000b6020000b6020000b602000036
:1002e800b6020000b6020000b6020000b602000026
:1002f800b6020000b6020000b6020000b602000016
:10030800b6020000b6020000b6020000b602000005
:10031800b6020000b6020000b6020000b6020000f5
:10032800b6020000b6020000b6020000b6020000e5
:10033800b6020000b6020000b6020000b6020000d5
:10034800b6020000b6020000b6020000b6020000c5
:10035800b6020000b6020000b6020000b6020000b5
:10036800b6020000b6020000b6020000b6020000a5
:10037800b6020000b6020000b6020000b602000095
:10038800b6020000b6020000b6020000b602000085
:10039800b6020000b6020000b6020000b602000075
:1003a800b6020000b6020000b6020000b602000065
:1003b800b6020000b6020000b6020000b602000055
:1003c800b6020000b6020000b6020000b602000045
:1003d800b6020000b6020000b6020000b602000035
:1003e800b6020000b6020000b6020000b602000025
:0803f800b6020000b60200008d
:020000040000fa
:1009c800415400002b520000535400000d0a00004f
:1009d80000410000542b0000435700004d4f000019
:1009e800444500003d3100000d0a000000410000b0
:1009f800542b0000435700004a410000503d0000be
:100a08002277000069660000695f00007a6f0000c5
:100a18006d62000069650000222c0000227300004e
:100a28006c730000393300003036000032320000a9
:080a3800220d00000a0000007d
:020000040000fa
:100a40000000fa00740120004411880021e2a9008e
:100a500021a2a9002182a9002162a900041180001d
:100a60000480a1000490a1000411880020e2a900e4
:100a700020c2a90020a2a9002082a9002062a9000a
:100a8000041180000410a1000420a10004118800ba
:100a90002002a90023a2a90023e2a90023c2a900e1
:100aa0002362a9002342a900141180000460a00061
:100ab0000470a0001411880022a2a900540580002f
:100ac0000400a0000410a0000420a0005405880029
:100ad0009580a8008580a9004405800004c0a0007e
:100ae00004d0a00004e0a000440588009560a800a0
:100af0008560a90021e2a8002342a8000080fa0036
:100b0000000006000200fa00000f7800000000005c
:100b1000151180000410200004826200e00f5200d2
:100b2000fbff32000411800066026200e00f5200f9
:100b300003003a001e0278002411880003003700e9
:100b4000f40f20001e026200241188000080fa00c9
:100b5000000006000400fa00100798009e029000b2
:100b6000843e2000110009008482d8000002780031
:100b7000044f78009e4278000582fb000403b00019
:100b800004007800dfff07001e4078008082fb0031
:100b900084c12f0004aab900040278009e029000cc
:100ba00004824200140798009e0290004406200030
:100bb000110009008482d80000027800044f7800f8
:100bc0009e4278000582fb000403b0000400780018
:100bd000ccff07001e4078008082fb00c4f92f0084
:100be00004aab900040278009e0290000482420028
:100bf000140798009e029000a40020001100090034
:100c00008482d80000027800044f78009e42780069
:100c10000582fb000403b00004007800b9ff070060
:100c20001e4078008082fb0064ff2f0004aab900f8
:100c3000040278009e02900004824200140798008b
:100c40001e0290000403b00004007800adff07000e
:100c50000080fa00000006000200fa00000f780091
:100c6000060037001e027800144278000402fb00e0
:100c70001e0fe80004007800a2ff07001e027800a3
:100c800014427800e04f5200f6ff3a000080fa006c
:100c9000000006003400f800881f780008002000db
:100ca000a80188004f0478000000fa008580a900a0
:100cb0000080fa003400f90000400600841f78002c
:100cc0003400f80004002000a40188000000fa00ad
:100cd0008560a90034118000c44288000080fa00b9
:100ce0003400f9004f027800004006000000fa00ce
:100cf00021e3a900e40f20006419880021a3a900c2
:100d00002143a800041980000480a1000490a100e0
:100d100004198800041980000450a0000460a00099
:100d20000470a000041988002043a8002023a90013
:100d30002003a90028e3a9004519800004fe2f0024
:100d4000048262004419880025e3a9002519800067
:100d5000f40f2e008482620004e02100050272007c
:100d60002419880044c0b3000443780045322000b1
:100d7000864a78000002eb0084198800141980006c
:100d800004d0a10004e0a10004f0a100141988001f
:100d90002343a900141980000420a1000430a100fd
:100da0000440a1000450a100141988002223a900c6
:100db0002203a900540580000440a0000450a000b4
:100dc0000460a1005405880085a0a90095a0a80092
:100dd0000080fa00000006000000fa000002eb00ac
:100de0008442880004302000a4428800a44280008d
:100df00014027800844288008442800005002000ac
:100e00000400be00dbfd07000002be0002002f0050
:100e1000f35724000400be00d8fd07000002be0006
:100e200002002000533a24000400be0015fe070013
:100e30000002be000400be0046fe07000002be0025
:100e400004027800944288000080fa000000060046
:100e50003400f800881f780008002000a8018800ee
:100e60004f0478000000fa0085a0a9000080fa0075
:100e70003400f900004006000000fa00f0fe070010
:100e800050e62000010020007bfd07003000070035
:100e90004000070095ff0700010037000000000038
:100ea000b44280006123b9000082eb008082eb0035
:100eb0000602420087824a00360020000700200018
:100ec000860f5200878f5a00f4ff3e000460010035
:100ed0000300370009003700100037001700370003
:100ee000404e28005cff0700804a2200911120003c
:100ef00061fd070024002000b4428800d04e280085
:100f000055ff0700804a2200911120005afd07007a
:100f100034002000b44288000c003700b04f280095
:100f20004dff0700804a22009111200052fd07006a
:100f300044002000b442880004003700907f240061
:100f4000010020004cfd070000000000d4ff370026
:100f50000000fa0015368000f40f2e008482620033
:100f60000430200005027200143688002535800008
:100f700004fe2f00048262000420a00024358800b3
:100f8000c862a900c882a800c002a8000080fa00b8
:100f9000000006000000fa004227a9004267a900ed
:100fa000143a8000453a800004fc2f00048262005d
:100fb000443a880081e0a900140280000450a10096
:100fc0000460a1000470a100140288004460a9001c
:080fd0000080fa000000060099
:020000040000fa
:100fd80056080000020000000200000001000000a6
:100fe800580800000200000000000000500800003f
:0c0ff800060000000000000000000000e7
:00000001FF
